{
  "contractName": "TodoContract",
  "abi": [
    {
      "anonymous": false,
      "inputs": [
        {
          "indexed": false,
          "internalType": "address",
          "name": "recipient",
          "type": "address"
        },
        {
          "indexed": false,
          "internalType": "uint256",
          "name": "todoId",
          "type": "uint256"
        }
      ],
      "name": "AddTodo",
      "type": "event"
    },
    {
      "inputs": [
        {
          "internalType": "address",
          "name": "",
          "type": "address"
        },
        {
          "internalType": "uint256",
          "name": "",
          "type": "uint256"
        }
      ],
      "name": "todos",
      "outputs": [
        {
          "internalType": "uint256",
          "name": "id",
          "type": "uint256"
        },
        {
          "internalType": "address",
          "name": "owner",
          "type": "address"
        },
        {
          "internalType": "string",
          "name": "text",
          "type": "string"
        },
        {
          "internalType": "bool",
          "name": "isDone",
          "type": "bool"
        },
        {
          "internalType": "string",
          "name": "color",
          "type": "string"
        }
      ],
      "stateMutability": "view",
      "type": "function",
      "constant": true
    },
    {
      "inputs": [
        {
          "internalType": "string",
          "name": "text",
          "type": "string"
        },
        {
          "internalType": "string",
          "name": "color",
          "type": "string"
        }
      ],
      "name": "addTodo",
      "outputs": [],
      "stateMutability": "nonpayable",
      "type": "function"
    },
    {
      "inputs": [
        {
          "internalType": "uint256",
          "name": "id",
          "type": "uint256"
        },
        {
          "internalType": "bool",
          "name": "isDone",
          "type": "bool"
        }
      ],
      "name": "updateTodo",
      "outputs": [],
      "stateMutability": "nonpayable",
      "type": "function"
    },
    {
      "inputs": [],
      "name": "getTodos",
      "outputs": [
        {
          "components": [
            {
              "internalType": "uint256",
              "name": "id",
              "type": "uint256"
            },
            {
              "internalType": "address",
              "name": "owner",
              "type": "address"
            },
            {
              "internalType": "string",
              "name": "text",
              "type": "string"
            },
            {
              "internalType": "bool",
              "name": "isDone",
              "type": "bool"
            },
            {
              "internalType": "string",
              "name": "color",
              "type": "string"
            }
          ],
          "internalType": "struct TodoContract.Todo[]",
          "name": "",
          "type": "tuple[]"
        }
      ],
      "stateMutability": "view",
      "type": "function",
      "constant": true
    }
  ],
  "bytecode": "0x608060405234801561001057600080fd5b50611064806100206000396000f3fe608060405234801561001057600080fd5b506004361061004c5760003560e01c80631b7fb260146100515780631f22e5f91461006d578063428c188914610089578063c33926cb146100bd575b600080fd5b61006b60048036038101906100669190610846565b6100db565b005b6100876004803603810190610082919061092c565b6102a5565b005b6100a3600480360381019061009e91906109ca565b610322565b6040516100b4959493929190610abf565b60405180910390f35b6100c56104b2565b6040516100d29190610cd6565b60405180910390f35b60008060003373ffffffffffffffffffffffffffffffffffffffff1673ffffffffffffffffffffffffffffffffffffffff1681526020019081526020016000208054905090506000803373ffffffffffffffffffffffffffffffffffffffff1673ffffffffffffffffffffffffffffffffffffffff1681526020019081526020016000206040518060a001604052808381526020013373ffffffffffffffffffffffffffffffffffffffff1681526020018581526020016000151581526020018481525090806001815401808255809150506001900390600052602060002090600502016000909190919091506000820151816000015560208201518160010160006101000a81548173ffffffffffffffffffffffffffffffffffffffff021916908373ffffffffffffffffffffffffffffffffffffffff160217905550604082015181600201908161022e9190610f04565b5060608201518160030160006101000a81548160ff02191690831515021790555060808201518160040190816102649190610f04565b5050507feb2fbc651194cbec6fe990857b04243a010e3e05d12441e94a73f3dddb1129d53382604051610298929190610fd6565b60405180910390a1505050565b806000803373ffffffffffffffffffffffffffffffffffffffff1673ffffffffffffffffffffffffffffffffffffffff16815260200190815260200160002083815481106102f6576102f5610fff565b5b906000526020600020906005020160030160006101000a81548160ff0219169083151502179055505050565b6000602052816000526040600020818154811061033e57600080fd5b9060005260206000209060050201600091509150508060000154908060010160009054906101000a900473ffffffffffffffffffffffffffffffffffffffff169080600201805461038e90610d27565b80601f01602080910402602001604051908101604052809291908181526020018280546103ba90610d27565b80156104075780601f106103dc57610100808354040283529160200191610407565b820191906000526020600020905b8154815290600101906020018083116103ea57829003601f168201915b5050505050908060030160009054906101000a900460ff169080600401805461042f90610d27565b80601f016020809104026020016040519081016040528092919081815260200182805461045b90610d27565b80156104a85780601f1061047d576101008083540402835291602001916104a8565b820191906000526020600020905b81548152906001019060200180831161048b57829003601f168201915b5050505050905085565b60606000803373ffffffffffffffffffffffffffffffffffffffff1673ffffffffffffffffffffffffffffffffffffffff168152602001908152602001600020805480602002602001604051908101604052809291908181526020016000905b828210156106e357838290600052602060002090600502016040518060a0016040529081600082015481526020016001820160009054906101000a900473ffffffffffffffffffffffffffffffffffffffff1673ffffffffffffffffffffffffffffffffffffffff1673ffffffffffffffffffffffffffffffffffffffff1681526020016002820180546105a590610d27565b80601f01602080910402602001604051908101604052809291908181526020018280546105d190610d27565b801561061e5780601f106105f35761010080835404028352916020019161061e565b820191906000526020600020905b81548152906001019060200180831161060157829003601f168201915b505050505081526020016003820160009054906101000a900460ff1615151515815260200160048201805461065290610d27565b80601f016020809104026020016040519081016040528092919081815260200182805461067e90610d27565b80156106cb5780601f106106a0576101008083540402835291602001916106cb565b820191906000526020600020905b8154815290600101906020018083116106ae57829003601f168201915b50505050508152505081526020019060010190610512565b50505050905090565b6000604051905090565b600080fd5b600080fd5b600080fd5b600080fd5b6000601f19601f8301169050919050565b7f4e487b7100000000000000000000000000000000000000000000000000000000600052604160045260246000fd5b6107538261070a565b810181811067ffffffffffffffff821117156107725761077161071b565b5b80604052505050565b60006107856106ec565b9050610791828261074a565b919050565b600067ffffffffffffffff8211156107b1576107b061071b565b5b6107ba8261070a565b9050602081019050919050565b82818337600083830152505050565b60006107e96107e484610796565b61077b565b90508281526020810184848401111561080557610804610705565b5b6108108482856107c7565b509392505050565b600082601f83011261082d5761082c610700565b5b813561083d8482602086016107d6565b91505092915050565b6000806040838503121561085d5761085c6106f6565b5b600083013567ffffffffffffffff81111561087b5761087a6106fb565b5b61088785828601610818565b925050602083013567ffffffffffffffff8111156108a8576108a76106fb565b5b6108b485828601610818565b9150509250929050565b6000819050919050565b6108d1816108be565b81146108dc57600080fd5b50565b6000813590506108ee816108c8565b92915050565b60008115159050919050565b610909816108f4565b811461091457600080fd5b50565b60008135905061092681610900565b92915050565b60008060408385031215610943576109426106f6565b5b6000610951858286016108df565b925050602061096285828601610917565b9150509250929050565b600073ffffffffffffffffffffffffffffffffffffffff82169050919050565b60006109978261096c565b9050919050565b6109a78161098c565b81146109b257600080fd5b50565b6000813590506109c48161099e565b92915050565b600080604083850312156109e1576109e06106f6565b5b60006109ef858286016109b5565b9250506020610a00858286016108df565b9150509250929050565b610a13816108be565b82525050565b610a228161098c565b82525050565b600081519050919050565b600082825260208201905092915050565b60005b83811015610a62578082015181840152602081019050610a47565b83811115610a71576000848401525b50505050565b6000610a8282610a28565b610a8c8185610a33565b9350610a9c818560208601610a44565b610aa58161070a565b840191505092915050565b610ab9816108f4565b82525050565b600060a082019050610ad46000830188610a0a565b610ae16020830187610a19565b8181036040830152610af38186610a77565b9050610b026060830185610ab0565b8181036080830152610b148184610a77565b90509695505050505050565b600081519050919050565b600082825260208201905092915050565b6000819050602082019050919050565b610b55816108be565b82525050565b610b648161098c565b82525050565b600082825260208201905092915050565b6000610b8682610a28565b610b908185610b6a565b9350610ba0818560208601610a44565b610ba98161070a565b840191505092915050565b610bbd816108f4565b82525050565b600060a083016000830151610bdb6000860182610b4c565b506020830151610bee6020860182610b5b565b5060408301518482036040860152610c068282610b7b565b9150506060830151610c1b6060860182610bb4565b5060808301518482036080860152610c338282610b7b565b9150508091505092915050565b6000610c4c8383610bc3565b905092915050565b6000602082019050919050565b6000610c6c82610b20565b610c768185610b2b565b935083602082028501610c8885610b3c565b8060005b85811015610cc45784840389528151610ca58582610c40565b9450610cb083610c54565b925060208a01995050600181019050610c8c565b50829750879550505050505092915050565b60006020820190508181036000830152610cf08184610c61565b905092915050565b7f4e487b7100000000000000000000000000000000000000000000000000000000600052602260045260246000fd5b60006002820490506001821680610d3f57607f821691505b602082108103610d5257610d51610cf8565b5b50919050565b60008190508160005260206000209050919050565b60006020601f8301049050919050565b600082821b905092915050565b600060088302610dba7fffffffffffffffffffffffffffffffffffffffffffffffffffffffffffffffff82610d7d565b610dc48683610d7d565b95508019841693508086168417925050509392505050565b6000819050919050565b6000610e01610dfc610df7846108be565b610ddc565b6108be565b9050919050565b6000819050919050565b610e1b83610de6565b610e2f610e2782610e08565b848454610d8a565b825550505050565b600090565b610e44610e37565b610e4f818484610e12565b505050565b5b81811015610e7357610e68600082610e3c565b600181019050610e55565b5050565b601f821115610eb857610e8981610d58565b610e9284610d6d565b81016020851015610ea1578190505b610eb5610ead85610d6d565b830182610e54565b50505b505050565b600082821c905092915050565b6000610edb60001984600802610ebd565b1980831691505092915050565b6000610ef48383610eca565b9150826002028217905092915050565b610f0d82610a28565b67ffffffffffffffff811115610f2657610f2561071b565b5b610f308254610d27565b610f3b828285610e77565b600060209050601f831160018114610f6e5760008415610f5c578287015190505b610f668582610ee8565b865550610fce565b601f198416610f7c86610d58565b60005b82811015610fa457848901518255600182019150602085019450602081019050610f7f565b86831015610fc15784890151610fbd601f891682610eca565b8355505b6001600288020188555050505b505050505050565b6000604082019050610feb6000830185610a19565b610ff86020830184610a0a565b9392505050565b7f4e487b7100000000000000000000000000000000000000000000000000000000600052603260045260246000fdfea26469706673582212209c08578a18ffd63e8d469966ec50bdc586a82ba11c9585575fc06db4830ba6ec64736f6c634300080f0033",
  "immutableReferences": {},
  "source": "// SPDX-License-Identifier: MIT\npragma solidity >=0.4.22 <0.9.0;\n\ncontract TodoContract {\n    event AddTodo(address recipient, uint256 todoId);\n\n    struct Todo {\n        uint256 id;\n        address owner;\n        string text;\n        bool isDone;\n        string color;\n    }\n\n    mapping(address => Todo[]) public todos;\n\n    function addTodo(string memory text, string memory color) external {\n        uint256 id = todos[msg.sender].length;\n        todos[msg.sender].push(Todo(id, msg.sender, text, false, color));\n        emit AddTodo(msg.sender, id);\n    }\n\n    function updateTodo(uint256 id, bool isDone) external {\n        todos[msg.sender][id].isDone = isDone;\n    }\n\n\n    function getTodos() external view returns (Todo[] memory) {\n        return todos[msg.sender];\n    }\n}\n",
  "sourcePath": "/Users/lorenzogangemi/Projects/todo-dapp/contracts/TodoContract.sol",
  "compiler": {
    "name": "solc",
    "version": "0.8.15+commit.e14f2714.Emscripten.clang"
  },
  "schemaVersion": "3.4.8",
  "updatedAt": "2022-09-19T22:01:41.903Z",
  "networkType": "ethereum",
  "devdoc": {
    "kind": "dev",
    "methods": {},
    "version": 1
  },
  "userdoc": {
    "kind": "user",
    "methods": {},
    "version": 1
  }
}